{"abi":[{"type":"constructor","inputs":[],"stateMutability":"nonpayable"},{"type":"function","name":"OPT_OUT_COOLDOWN","inputs":[],"outputs":[{"name":"","type":"uint256","internalType":"uint256"}],"stateMutability":"view"},{"type":"function","name":"basedProposers","inputs":[{"name":"","type":"address","internalType":"address"}],"outputs":[{"name":"addr","type":"address","internalType":"address"},{"name":"status","type":"uint8","internalType":"enum IBoltRegistry.BoltStatus"},{"name":"isOptingOut","type":"bool","internalType":"bool"}],"stateMutability":"view"},{"type":"function","name":"beginOptOut","inputs":[],"outputs":[],"stateMutability":"nonpayable"},{"type":"function","name":"confirmOptOut","inputs":[],"outputs":[],"stateMutability":"nonpayable"},{"type":"function","name":"getBasedProposerStatus","inputs":[{"name":"_basedProposer","type":"address","internalType":"address"}],"outputs":[{"name":"","type":"uint8","internalType":"enum IBoltRegistry.BoltStatus"}],"stateMutability":"view"},{"type":"function","name":"isActiveBasedProposer","inputs":[{"name":"_basedProposer","type":"address","internalType":"address"}],"outputs":[{"name":"","type":"bool","internalType":"bool"}],"stateMutability":"view"},{"type":"function","name":"optIn","inputs":[],"outputs":[],"stateMutability":"nonpayable"},{"type":"event","name":"BasedProposerStatusChanged","inputs":[{"name":"basedProposer","type":"address","indexed":true,"internalType":"address"},{"name":"status","type":"uint8","indexed":false,"internalType":"enum IBoltRegistry.BoltStatus"}],"anonymous":false},{"type":"error","name":"AlreadyOptedIn","inputs":[]},{"type":"error","name":"BasedProposerDoesNotExist","inputs":[]},{"type":"error","name":"CooldownNotElapsed","inputs":[]},{"type":"error","name":"InvalidStatusChange","inputs":[]},{"type":"error","name":"NotFound","inputs":[]},{"type":"error","name":"Unauthorized","inputs":[]}],"bytecode":{"object":"0x6080604052348015600f57600080fd5b506105e68061001f6000396000f3fe608060405234801561001057600080fd5b506004361061007d5760003560e01c8063aa64b3321161005b578063aa64b33214610103578063ba210b2a1461010b578063c772ea9614610113578063efe45ffb1461012b57600080fd5b8063440e17d114610082578063520c0977146100d95780635b48684e146100f9575b600080fd5b6100c16100903660046104e6565b6000602081905290815260409020546001600160a01b0381169060ff600160a01b8204811691600160a81b90041683565b6040516100d09392919061054e565b60405180910390f35b6100ec6100e73660046104e6565b61014e565b6040516100d0919061057b565b6101016101ad565b005b6101016102b4565b610101610351565b61011d6201518081565b6040519081526020016100d0565b61013e6101393660046104e6565b610480565b60405190151581526020016100d0565b6001600160a01b038181166000908152602081905260408120549091166101875760405162cc5bff60e51b815260040160405180910390fd5b506001600160a01b0316600090815260208190526040902054600160a01b900460ff1690565b336000908152602081905260409020546001600160a01b0316156101e45760405163dcdeaba360e01b815260040160405180910390fd5b604080516060810190915233815260208101600081526000602091820181905233815280825260409020825181546001600160a01b03919091166001600160a01b031982168117835592840151919283916001600160a81b03191617600160a01b83600181111561025757610257610516565b02179055506040918201518154901515600160a81b0260ff60a81b199091161790555133907f602c21063f5d6638aa31fb4bd7fb709bc5021b758f047c8358ddbc5fae19ac52906102aa9060009061057b565b60405180910390a2565b336000818152602081905260409020805490916001600160a01b03909116146102ef5760405162cc5bff60e51b815260040160405180910390fd5b60018154600160a01b900460ff16600181111561030e5761030e610516565b0361032c576040516365d3c7dd60e11b815260040160405180910390fd5b805460ff60a81b1916600160a81b179055336000908152600160205260409020429055565b336000818152602081905260409020805490916001600160a01b039091161461038c5760405162cc5bff60e51b815260040160405180910390fd5b8054600160a81b900460ff166103b5576040516365d3c7dd60e11b815260040160405180910390fd5b60018154600160a01b900460ff1660018111156103d4576103d4610516565b036103f2576040516365d3c7dd60e11b815260040160405180910390fd5b3360009081526001602052604090205461041090620151809061058f565b42101561043057604051635115ba2f60e11b815260040160405180910390fd5b805461ffff60a01b1916600160a01b17815560405133907f602c21063f5d6638aa31fb4bd7fb709bc5021b758f047c8358ddbc5fae19ac52906104759060019061057b565b60405180910390a250565b6001600160a01b038181166000908152602081905260408120549091166104a957506000919050565b60006001600160a01b038316600090815260208190526040902054600160a01b900460ff1660018111156104df576104df610516565b1492915050565b6000602082840312156104f857600080fd5b81356001600160a01b038116811461050f57600080fd5b9392505050565b634e487b7160e01b600052602160045260246000fd5b6002811061054a57634e487b7160e01b600052602160045260246000fd5b9052565b6001600160a01b03841681526060810161056b602083018561052c565b8215156040830152949350505050565b60208101610589828461052c565b92915050565b8082018082111561058957634e487b7160e01b600052601160045260246000fdfea26469706673582212209e63b0238550ef82ee7764d382867fa8921bc3f1fffc9bd29e35841c3f76880e64736f6c63430008190033","linkReferences":{}},"methodIdentifiers":{"OPT_OUT_COOLDOWN()":"c772ea96","basedProposers(address)":"440e17d1","beginOptOut()":"aa64b332","confirmOptOut()":"ba210b2a","getBasedProposerStatus(address)":"520c0977","isActiveBasedProposer(address)":"efe45ffb","optIn()":"5b48684e"},"id":35}