{"abi":[{"type":"constructor","inputs":[{"name":"_boltRegistry","type":"address","internalType":"address"},{"name":"_reliquary","type":"address","internalType":"address"},{"name":"_blockHeaderProver","type":"address","internalType":"address"},{"name":"_accountInfoProver","type":"address","internalType":"address"}],"stateMutability":"nonpayable"},{"type":"function","name":"CHALLENGE_BOND","inputs":[],"outputs":[{"name":"","type":"uint256","internalType":"uint256"}],"stateMutability":"view"},{"type":"function","name":"MAX_CHALLENGE_DURATION","inputs":[],"outputs":[{"name":"","type":"uint256","internalType":"uint256"}],"stateMutability":"view"},{"type":"function","name":"accountInfoProver","inputs":[],"outputs":[{"name":"","type":"address","internalType":"contract IProver"}],"stateMutability":"view"},{"type":"function","name":"blockHeaderProver","inputs":[],"outputs":[{"name":"","type":"address","internalType":"contract IProver"}],"stateMutability":"view"},{"type":"function","name":"boltRegistry","inputs":[],"outputs":[{"name":"","type":"address","internalType":"contract IBoltRegistry"}],"stateMutability":"view"},{"type":"function","name":"challengeProposer","inputs":[{"name":"_basedProposer","type":"address","internalType":"address"},{"name":"_signedCommitment","type":"tuple","internalType":"struct BoltChallenger.SignedCommitment","components":[{"name":"slot","type":"uint256","internalType":"uint256"},{"name":"nonce","type":"uint256","internalType":"uint256"},{"name":"gasUsed","type":"uint256","internalType":"uint256"},{"name":"transactionHash","type":"bytes32","internalType":"bytes32"},{"name":"signedRawTransaction","type":"bytes","internalType":"bytes"},{"name":"signature","type":"bytes","internalType":"bytes"}]}],"outputs":[],"stateMutability":"payable"},{"type":"function","name":"challenges","inputs":[{"name":"","type":"bytes32","internalType":"bytes32"}],"outputs":[{"name":"basedProposer","type":"address","internalType":"address"},{"name":"signedCommitment","type":"tuple","internalType":"struct BoltChallenger.SignedCommitment","components":[{"name":"slot","type":"uint256","internalType":"uint256"},{"name":"nonce","type":"uint256","internalType":"uint256"},{"name":"gasUsed","type":"uint256","internalType":"uint256"},{"name":"transactionHash","type":"bytes32","internalType":"bytes32"},{"name":"signedRawTransaction","type":"bytes","internalType":"bytes"},{"name":"signature","type":"bytes","internalType":"bytes"}]},{"name":"challenger","type":"address","internalType":"address"},{"name":"targetSlotBeaconRoot","type":"bytes32","internalType":"bytes32"},{"name":"status","type":"uint8","internalType":"enum IBoltChallenger.ChallengeStatus"},{"name":"openTimestamp","type":"uint256","internalType":"uint256"}],"stateMutability":"view"},{"type":"function","name":"reliquary","inputs":[],"outputs":[{"name":"","type":"address","internalType":"contract IReliquary"}],"stateMutability":"view"},{"type":"function","name":"resolveChallenge","inputs":[{"name":"_challengeID","type":"bytes32","internalType":"bytes32"},{"name":"_blockHeaderProof","type":"bytes","internalType":"bytes"},{"name":"_accountDataProof","type":"bytes","internalType":"bytes"},{"name":"_transactionIndex","type":"uint256","internalType":"uint256"},{"name":"_inclusionProof","type":"bytes32[]","internalType":"bytes32[]"}],"outputs":[],"stateMutability":"nonpayable"},{"type":"event","name":"ChallengeResolved","inputs":[{"name":"challengeID","type":"bytes32","indexed":true,"internalType":"bytes32"},{"name":"result","type":"uint8","indexed":false,"internalType":"enum IBoltChallenger.ChallengeResult"}],"anonymous":false},{"type":"event","name":"NewChallenge","inputs":[{"name":"basedProposer","type":"address","indexed":true,"internalType":"address"},{"name":"commitmentID","type":"bytes32","indexed":true,"internalType":"bytes32"},{"name":"targetSlot","type":"uint256","indexed":false,"internalType":"uint256"}],"anonymous":false},{"type":"error","name":"BeaconRootNotFound","inputs":[]},{"type":"error","name":"ChallengeAlreadyExists","inputs":[]},{"type":"error","name":"ChallengeAlreadyResolved","inputs":[]},{"type":"error","name":"ChallengeNotFound","inputs":[]},{"type":"error","name":"InsufficientBond","inputs":[]},{"type":"error","name":"InvalidChallenge","inputs":[]},{"type":"error","name":"InvalidCommitmentSignature","inputs":[]},{"type":"error","name":"InvalidCommitmentSigner","inputs":[]},{"type":"error","name":"InvalidProposerAddress","inputs":[]},{"type":"error","name":"TargetSlotTooFarInThePast","inputs":[]},{"type":"error","name":"Unauthorized","inputs":[]},{"type":"error","name":"UnexpectedFactSignature","inputs":[]},{"type":"error","name":"WrongBlockHeader","inputs":[]}],"bytecode":{"object":"0x61010060405234801561001157600080fd5b50604051611f8f380380611f8f8339810160408190526100309161006e565b6001600160a01b0393841660805291831660a052821660c0521660e0526100c2565b80516001600160a01b038116811461006957600080fd5b919050565b6000806000806080858703121561008457600080fd5b61008d85610052565b935061009b60208601610052565b92506100a960408601610052565b91506100b760608601610052565b905092959194509250565b60805160a05160c05160e051611e8061010f6000396000818160b20152610efe0152600081816101fe0152610ded015260006101aa01526000818161010301526103220152611e806000f3fe6080604052600436106100865760003560e01c8063b9f4420d11610059578063b9f4420d1461014f578063c1e69b6614610166578063e754de6314610198578063ea7a4d3c146101cc578063f48d3ff1146101ec57600080fd5b806305575f2b1461008b5780630ae2e46d146100a0578063253871da146100f15780639790ce7114610125575b600080fd5b61009e6100993660046114e1565b610220565b005b3480156100ac57600080fd5b506100d47f000000000000000000000000000000000000000000000000000000000000000081565b6040516001600160a01b0390911681526020015b60405180910390f35b3480156100fd57600080fd5b506100d47f000000000000000000000000000000000000000000000000000000000000000081565b34801561013157600080fd5b50610141670de0b6b3a764000081565b6040519081526020016100e8565b34801561015b57600080fd5b5061014162093a8081565b34801561017257600080fd5b50610186610181366004611537565b6105b9565b6040516100e8969594939291906115e1565b3480156101a457600080fd5b506100d47f000000000000000000000000000000000000000000000000000000000000000081565b3480156101d857600080fd5b5061009e6101e73660046116da565b61076e565b3480156101f857600080fd5b506100d47f000000000000000000000000000000000000000000000000000000000000000081565b6001600160a01b038216158061023557508035155b15610253576040516392fa6fd360e01b815260040160405180910390fd5b670de0b6b3a764000034101561027c5760405163e92c469f60e01b815260040160405180910390fd5b670de0b6b3a76400003411156102cc57336108fc6102a2670de0b6b3a7640000346117cc565b6040518115909202916000818181858888f193505050501580156102ca573d6000803e3d6000fd5b505b611ffe81356102da42610ae5565b6102e491906117cc565b111561030357604051633064962b60e01b815260040160405180910390fd5b60405163efe45ffb60e01b81526001600160a01b0383811660048301527f0000000000000000000000000000000000000000000000000000000000000000169063efe45ffb90602401602060405180830381865afa158015610369573d6000803e3d6000fd5b505050506040513d601f19601f8201168201806040525081019061038d91906117df565b6103aa57604051635a8236d360e01b815260040160405180910390fd5b60006103bd6103b883611938565b610b07565b6000818152602081905260409020549091506001600160a01b0316156103f657604051634450435760e01b815260040160405180910390fd5b6001600160a01b0383166104168261041160a08601866119cc565b610b47565b6001600160a01b03161461043d576040516372990aa760e01b815260040160405180910390fd5b60006104498335610be1565b90506040518060c00160405280856001600160a01b031681526020018461046f90611938565b81523360208201526040810183905260600160008152426020918201526000848152808252604090819020835181546001600160a01b0319166001600160a01b039091161781558383015180516001830190815593810151600283015591820151600382015560608201516004820155608082015190929060058401906104f69082611a9d565b5060a0820151600582019061050b9082611a9d565b50505060408201516007820180546001600160a01b0319166001600160a01b0390921691909117905560608201516008820155608082015160098201805460ff191660018381811115610560576105606115a0565b021790555060a09190910151600a909101556040518335815282906001600160a01b038616907f3a671ae5e0489c13032de3307a2b7e2f0ebf8000320eb94be4c0bc93308469879060200160405180910390a350505050565b60006020528060005260406000206000915090508060000160009054906101000a90046001600160a01b031690806001016040518060c00160405290816000820154815260200160018201548152602001600282015481526020016003820154815260200160048201805461062d90611a12565b80601f016020809104026020016040519081016040528092919081815260200182805461065990611a12565b80156106a65780601f1061067b576101008083540402835291602001916106a6565b820191906000526020600020905b81548152906001019060200180831161068957829003601f168201915b505050505081526020016005820180546106bf90611a12565b80601f01602080910402602001604051908101604052809291908181526020018280546106eb90611a12565b80156107385780601f1061070d57610100808354040283529160200191610738565b820191906000526020600020905b81548152906001019060200180831161071b57829003601f168201915b50505091909252505050600782015460088301546009840154600a9094015492936001600160a01b0390921692909160ff169086565b600088815260208181526040808320815160c0808201845282546001600160a01b0316825283519081018452600183018054825260028401548287015260038401549482019490945260048301546060820152600583018054929593949386019391926080840191906107e090611a12565b80601f016020809104026020016040519081016040528092919081815260200182805461080c90611a12565b80156108595780601f1061082e57610100808354040283529160200191610859565b820191906000526020600020905b81548152906001019060200180831161083c57829003601f168201915b5050505050815260200160058201805461087290611a12565b80601f016020809104026020016040519081016040528092919081815260200182805461089e90611a12565b80156108eb5780601f106108c0576101008083540402835291602001916108eb565b820191906000526020600020905b8154815290600101906020018083116108ce57829003601f168201915b50505091909252505050815260078201546001600160a01b0316602082015260088201546040820152600982015460609091019060ff166001811115610933576109336115a0565b6001811115610944576109446115a0565b8152600a919091015460209091015280519091506001600160a01b031661097e57604051632b8829ff60e21b815260040160405180910390fd5b600081608001516001811115610996576109966115a0565b146109b457604051632d921dad60e01b815260040160405180910390fd5b62093a808160a00151426109c891906117cc565b11156109dd576109d789610cd8565b50610adb565b80516001600160a01b03163314610a06576040516282b42960e81b815260040160405180910390fd5b6000610a128989610d72565b90506000610a2588888460a00151610ec0565b905082602001516020015181600001511115610a4c57610a448b610fce565b505050610adb565b816101400151836020015160400151610a659190611b5c565b81602001511015610a7957610a448b610fce565b602083015151610a8890611059565b8261010001511115610a9d57610a448b610cd8565b6000610ab88360600151888888886020015160800151611074565b905080610acd57610ac88c610cd8565b610ad6565b610ad68c610fce565b505050505b5050505050505050565b6000600c610af7635fc63057846117cc565b610b019190611b73565b92915050565b6000816000015182606001518360800151604051602001610b2a93929190611b95565b604051602081830303815290604052805190602001209050919050565b6000806000610b8c8686868080601f0160208091040260200160405190810160405280939291908181526020018383808284376000920191909152506110ac92505050565b5090925090506000816003811115610ba657610ba66115a0565b141580610bba57506001600160a01b038216155b15610bd8576040516309dcdf2160e01b815260040160405180910390fd5b50949350505050565b600080610bef600c84611b5c565b610bfd90635fc63057611bc2565b9050600080720f3df6d732807ef1319fb7b8bb8522d0beac026001600160a01b031683604051602001610c3291815260200190565b60408051601f1981840301815290829052610c4c91611bd5565b600060405180830381855afa9150503d8060008114610c87576040519150601f19603f3d011682016040523d82523d6000602084013e610c8c565b606091505b5091509150811580610c9d57508051155b15610cbb57604051631d2d2f6d60e31b815260040160405180910390fd5b80806020019051810190610ccf9190611bf1565b95945050505050565b60008181526020819052604080822060098101805460ff191660011790556007810154915190926001600160a01b039092169190670de0b6b3a76400009082818181858883f19350505050158015610d34573d6000803e3d6000fd5b50817fa0ac32ea2eda00c22d0c3d2ebb8bacee1dd1ee463252cee0f81279378d1fbc886000604051610d669190611c0a565b60405180910390a25050565b6040805161018081018252600080825260208201819052918101829052606081018290526080810182905260a0810182905260c0810182905260e0810182905261010081018290526101208101829052610140810182905261016081019190915260405163e19108c360e01b81526000906001600160a01b037f0000000000000000000000000000000000000000000000000000000000000000169063e19108c390610e2690879087908690600401611c1d565b6000604051808303816000875af1158015610e45573d6000803e3d6000fd5b505050506040513d6000823e601f3d908101601f19168201604052610e6d9190810190611c65565b90508060400151806020019051810190610e879190611d29565b9150610e968260a001516110f9565b816020015114610eb95760405163d02f4a1960e01b815260040160405180910390fd5b5092915050565b60408051608081018252600080825260208201819052918101829052606081019190915260405163e19108c360e01b81526000906001600160a01b037f0000000000000000000000000000000000000000000000000000000000000000169063e19108c390610f3790889088908690600401611c1d565b6000604051808303816000875af1158015610f56573d6000803e3d6000fd5b505050506040513d6000823e601f3d908101601f19168201604052610f7e9190810190611c65565b90508060400151806020019051810190610f989190611dcf565b9150610fa38361111e565b816020015114610fc65760405163d02f4a1960e01b815260040160405180910390fd5b509392505050565b60008181526020819052604080822060098101805460ff191660011790558054915190926001600160a01b039092169190670de0b6b3a76400009082818181858883f19350505050158015611027573d6000803e3d6000fd5b50817fa0ac32ea2eda00c22d0c3d2ebb8bacee1dd1ee463252cee0f81279378d1fbc886001604051610d669190611c0a565b6000611066600c83611b5c565b610b0190635fc63057611bc2565b6000806110848662200000611bc2565b905060006110918461112e565b90506110a086868a8486611293565b98975050505050505050565b600080600083516041036110e65760208401516040850151606086015160001a6110d888828585611315565b9550955095505050506110f2565b50508151600091506002905b9250925092565b6000610b016000611109846113e4565b8051602082012060081b60ff83161792915050565b6000610b0160006111098461142e565b60008060208351601f6111419190611bc2565b61114b9190611b73565b90506000816001600160401b0381111561116757611167611808565b604051908082528060200260200182016040528015611190578160200160208202803683370190505b50905060005b828110156112805760006111ab826020611b5c565b905060006111ba826020611bc2565b905086518111156111c9575085515b604080516020808252818301909252600091602082018180368337019050509050825b8281101561124f5788818151811061120657611206611e34565b01602001516001600160f81b0319168261122086846117cc565b8151811061123057611230611e34565b60200101906001600160f81b031916908160001a9053506001016111ec565b50808051906020012085858151811061126a5761126a611e34565b6020908102919091010152505050600101611196565b5061128b8183611462565b949350505050565b600084156112f4578460051b8601865b6001841660051b8460011c9450846112c357635849603f6000526004601cfd5b8581528135602091821852600060408160025afa806112e157600080fd5b5060005194506020018181106112a35750505b60001982011561130c57631b6661c36000526004601cfd5b50501492915050565b600080807f7fffffffffffffffffffffffffffffff5d576e7357a4501ddfe92f46681b20a084111561135057506000915060039050826113da565b604080516000808252602082018084528a905260ff891692820192909252606081018790526080810186905260019060a0016020604051602081039080840390855afa1580156113a4573d6000803e3d6000fd5b5050604051601f1901519150506001600160a01b0381166113d0575060009250600191508290506113da565b9250600091508190505b9450945094915050565b6040805160208101829052600b6060828101919091526a213637b1b5a432b0b232b960a91b608083015291810183905260a0015b6040516020818303038152906040529050919050565b60408051602081018290526007606082810191909152661058d8dbdd5b9d60ca1b608083015291810183905260a001611418565b60005b82838360051b81015b81516000526020820151602052602060006040600060025afa8061149157600080fd5b50600051835260208301925060408201915080821061146e575050508160011c9150600182036114c45750600051610b01565b611465565b6001600160a01b03811681146114de57600080fd5b50565b600080604083850312156114f457600080fd5b82356114ff816114c9565b915060208301356001600160401b0381111561151a57600080fd5b830160c0818603121561152c57600080fd5b809150509250929050565b60006020828403121561154957600080fd5b5035919050565b60005b8381101561156b578181015183820152602001611553565b50506000910152565b6000815180845261158c816020860160208601611550565b601f01601f19169290920160200192915050565b634e487b7160e01b600052602160045260246000fd5b600281106114de57634e487b7160e01b600052602160045260246000fd5b6115dd816115b6565b9052565b60018060a01b038716815260c06020820152855160c0820152602086015160e0820152604086015161010082015260608601516101208201526000608087015160c0610140840152611637610180840182611574565b905060a088015160bf19848303016101608501526116558282611574565b9250505061166e60408301876001600160a01b03169052565b84606083015261168160808301856115d4565b8260a0830152979650505050505050565b60008083601f8401126116a457600080fd5b5081356001600160401b038111156116bb57600080fd5b6020830191508360208285010111156116d357600080fd5b9250929050565b60008060008060008060008060a0898b0312156116f657600080fd5b8835975060208901356001600160401b038082111561171457600080fd5b6117208c838d01611692565b909950975060408b013591508082111561173957600080fd5b6117458c838d01611692565b909750955060608b0135945060808b013591508082111561176557600080fd5b818b0191508b601f83011261177957600080fd5b81358181111561178857600080fd5b8c60208260051b850101111561179d57600080fd5b6020830194508093505050509295985092959890939650565b634e487b7160e01b600052601160045260246000fd5b81810381811115610b0157610b016117b6565b6000602082840312156117f157600080fd5b8151801515811461180157600080fd5b9392505050565b634e487b7160e01b600052604160045260246000fd5b60405160c081016001600160401b038111828210171561184057611840611808565b60405290565b604051606081016001600160401b038111828210171561184057611840611808565b60405161018081016001600160401b038111828210171561184057611840611808565b604051601f8201601f191681016001600160401b03811182821017156118b3576118b3611808565b604052919050565b60006001600160401b038211156118d4576118d4611808565b50601f01601f191660200190565b600082601f8301126118f357600080fd5b8135611906611901826118bb565b61188b565b81815284602083860101111561191b57600080fd5b816020850160208301376000918101602001919091529392505050565b600060c0823603121561194a57600080fd5b61195261181e565b8235815260208301356020820152604083013560408201526060830135606082015260808301356001600160401b038082111561198e57600080fd5b61199a368387016118e2565b608084015260a08501359150808211156119b357600080fd5b506119c0368286016118e2565b60a08301525092915050565b6000808335601e198436030181126119e357600080fd5b8301803591506001600160401b038211156119fd57600080fd5b6020019150368190038213156116d357600080fd5b600181811c90821680611a2657607f821691505b602082108103611a4657634e487b7160e01b600052602260045260246000fd5b50919050565b601f821115611a98576000816000526020600020601f850160051c81016020861015611a755750805b601f850160051c820191505b81811015611a9457828155600101611a81565b5050505b505050565b81516001600160401b03811115611ab657611ab6611808565b611aca81611ac48454611a12565b84611a4c565b602080601f831160018114611aff5760008415611ae75750858301515b600019600386901b1c1916600185901b178555611a94565b600085815260208120601f198616915b82811015611b2e57888601518255948401946001909101908401611b0f565b5085821015611b4c5787850151600019600388901b60f8161c191681555b5050505050600190811b01905550565b8082028115828204841417610b0157610b016117b6565b600082611b9057634e487b7160e01b600052601260045260246000fd5b500490565b83815282602082015260008251611bb3816040850160208701611550565b91909101604001949350505050565b80820180821115610b0157610b016117b6565b60008251611be7818460208701611550565b9190910192915050565b600060208284031215611c0357600080fd5b5051919050565b60208101611c17836115b6565b91905290565b6040815282604082015282846060830137600060608483018101919091529115156020820152601f909201601f191690910101919050565b8051611c60816114c9565b919050565b60006020808385031215611c7857600080fd5b82516001600160401b0380821115611c8f57600080fd5b9084019060608287031215611ca357600080fd5b611cab611846565b8251611cb6816114c9565b81528284015184820152604083015182811115611cd257600080fd5b80840193505086601f840112611ce757600080fd5b82519150611cf7611901836118bb565b8281528785848601011115611d0b57600080fd5b611d1a83868301878701611550565b60408201529695505050505050565b60006101808284031215611d3c57600080fd5b611d44611868565b82518152611d5460208401611c55565b602082015260408301516040820152606083015160608201526080830151608082015260a083015160a082015260c083015160c082015260e083015160e08201526101008084015181830152506101208084015181830152506101408084015181830152506101608084015181830152508091505092915050565b600060808284031215611de157600080fd5b604051608081018181106001600160401b0382111715611e0357611e03611808565b8060405250825181526020830151602082015260408301516040820152606083015160608201528091505092915050565b634e487b7160e01b600052603260045260246000fdfea26469706673582212200436670fb12d7dbee4d6a49451c92b102a44569bc203430f19831ff86c1b2f8364736f6c63430008190033","linkReferences":{}},"methodIdentifiers":{"CHALLENGE_BOND()":"9790ce71","MAX_CHALLENGE_DURATION()":"b9f4420d","accountInfoProver()":"0ae2e46d","blockHeaderProver()":"f48d3ff1","boltRegistry()":"253871da","challengeProposer(address,(uint256,uint256,uint256,bytes32,bytes,bytes))":"05575f2b","challenges(bytes32)":"c1e69b66","reliquary()":"e754de63","resolveChallenge(bytes32,bytes,bytes,uint256,bytes32[])":"ea7a4d3c"},"id":34}