{"abi":[{"type":"function","name":"SHA256_PRECOMPILE","inputs":[],"outputs":[{"name":"","type":"uint256","internalType":"uint256"}],"stateMutability":"view"},{"type":"error","name":"BranchHasExtraItem","inputs":[]},{"type":"error","name":"BranchHasMissingItem","inputs":[]},{"type":"error","name":"Log2Undefined","inputs":[]}],"bytecode":{"object":"0x60876037600b82828239805160001a607314602a57634e487b7160e01b600052600060045260246000fd5b30600052607381538281f3fe730000000000000000000000000000000000000000301460806040526004361060335760003560e01c8063f4d6d56a146038575b600080fd5b603f600281565b60405190815260200160405180910390f3fea264697066735822122014c0fca45cdc77d0a27ae8a317af3d5492b9830e0d9fbe5fad5586838ca2582164736f6c63430008190033","linkReferences":{}},"methodIdentifiers":{"SHA256_PRECOMPILE()":"f4d6d56a"},"id":39}